:100000000C9481000C949E000C949E000C949E0015
:100010000C949E000C949E000C949E000C949E00E8
:100020000C949E000C9400340C94E1050C9484050F
:100030000C949E000C949E000C949E000C949E00C8
:100040000C949E000C949E000C949E000C949E00B8
:100050000C94BB4B0C949E000C949E000C949E0040
:100060000C949E000C9428020C949E000C949E000C
:100070000C949E000C949E000C949E000C949E0088
:100080000C94E9390C949E000C949E000C949E00F4
:100090000C949E000C949E000C949E000C949E0068
:1000A0000C949E000C949E000C94973A0C949E0025
:1000B0000C949E000C949E000C949E000C947A313B
:1000C0000C949E000C949E000C949E000C949E0038
:1000D0000C949E000C949E000C949E000C949E0028
:1000E0000C949E0005A84CCDB2D44EB93836A90266
:1000F0000C50B9918688083CA6AAAA2ABE00000026
:10010000803F11241FBECFEFD1E2DEBFCDBF19E08B
:10011000A0E0B2E0E0E3F3EB02C005900D92AA3F4D
:10012000B107D9F71CE0AAEFB9E001C01D92A734CE
:10013000B107E1F70E94A30D0C9451530C940000F9
:10014000AC019B0186EA62E30E949A0B0895CF926C
:10015000DF92EF92FF920F931F93DF93CF930F9253
:10016000CDB7DEB76C0186EA60E3AE014F5F5F4F4B
:1001700021E030E00E949A0B882309F082C0898137
:1001800087FD81C0E0900F0AF090100A0091110ADB
:100190001091120A20E0E21624E6F20620E002079F
:1001A00020E0120774F180E09CE9AFEFBFEFE80EAA
:1001B000F91E0A1F1B1FC801B70120E038EC40E000
:1001C00050E00E942259CA01B90120E038E34FEF04
:1001D0005FEF0E94035920E03CE94FEF5FEFE20E32
:1001E000F31E041F151F6E0D7F1D801F911F60934E
:1001F0000F0A7093100A8093110A9093120A7B01E0
:100200008C0130E0E3163CE9F3063FEF03073FEFD4
:10021000130734F56FEF7BE98FEF9FEF6E197F09BE
:10022000800B910B20E038EC40E050E00E94225916
:10023000CA01B90120E038EC40E050E00E940359C7
:10024000E20EF31E041F151FE60EF71E081F191FEE
:10025000E0920F0AF092100A0093110A1093120A0A
:10026000D601ED92FD920D931C93139780E00F90B1
:10027000CF91DF911F910F91FF90EF90DF90CF9082
:10028000089581E0F4CF86EA62E349E05AE026E08F
:1002900030E00E949A0B90910A0A80E02091090AAE
:1002A000820F911D9093080A8093070A70910C0A9F
:1002B00060E080910B0A680F711D7093040A6093CF
:1002C000030A90910E0A80E020910D0A820F911D81
:1002D0009093060A8093050A909581959F4F0E94FE
:1002E0005F0E60930F0A7093100A8093110A909327
:1002F000120A48CF1F9310920F0A1092100A109200
:10030000110A1092120A1FB7F89486EA6CE246E0CE
:100310000E94130D86EA6DE248E00E94130D86EA02
:1003200061E34BE00E94130D1FBF1F9108951092CF
:100330007D0A10927C0A10927B0A089510927D0A21
:1003400010927C0A10927B0A089580917B0A90910A
:100350007C0A8230910581F0039711F081E00895C5
:1003600080E092E00E94443010927D0A10927C0A54
:1003700010927B0A81E0089587E19AE00E948E1531
:1003800010927D0A10927C0A10927B0A0895809147
:100390007B0A90917C0A8230910571F0039709F0F5
:1003A000089580E092E00E94443010927D0A1092FD
:1003B0007C0A10927B0A089587E19AE00E94D81582
:1003C00010927D0A10927C0A10927B0A08950E9476
:1003D0003530882309F408950E943930282F809100
:1003E0007B0A90917C0A009799F42F33A1F781E062
:1003F00090E090937C0A80937B0A80917D0AE82F9D
:10040000F0E0E95EF54F20838F5F80937D0A0895C9
:10041000019709F780917D0AE82FF0E0E95EF54F3A
:1004200020838F5F80937D0A2A3059F02D3049F068
:10043000843688F283E090E090937C0A80937B0A74
:10044000089582E090E090937C0A80937B0A08955F
:100450001F920F920FB60F9211241F932F933F9369
:100460004F935F936F937F938F939F93AF93BF93BC
:10047000EF93FF931FB7F8940E943530882399F4C7
:100480001FBFFF91EF91BF91AF919F918F917F918E
:100490006F915F914F913F912F911F910F900FBEE0
:1004A0000F901F9018950E943930282F80917B0A59
:1004B00090917C0A009799F42F3311F781E090E036
:1004C00090937C0A80937B0A80917D0AE82FF0E06C
:1004D000E95EF54F20838F5F80937D0AD1CF01972E
:1004E00079F680917D0AE82FF0E0E95EF54F2083F0
:1004F0008F5F80937D0A2A3061F02D3051F0843671
:1005000008F4BECF83E090E090937C0A80937B0A4E
:10051000B7CF82E090E090937C0A80937B0AB0CFC3
:10052000909317028093160208958091160290917D
:1005300017020895E3E0F1E020814081E6E0F1E078
:10054000908180818095817090959270892B30E0A8
:1005500020953095207230703595279535952795E3
:10056000822B50E0409550954074507055954795BA
:10057000559547955595479555954795842B0895DD
:1005800080EC80936C0083E080936D0083B38F6078
:1005900083BB84B38F6084BB089584B38F6084BBB6
:1005A000089584B3807384BB0895E8E6F0E0808109
:1005B000866080830895E8E6F0E08081897F80830B
:1005C0000895AF92BF92CF92DF92EF92FF920F9376
:1005D0001F935B016C01642F20910F0C3091100C64
:1005E0004091110C5091120C8091160290911702BB
:1005F0007C010027F7FC0095102FDA01C9018E1944
:100600009F09A00BB10BA816B906CA06DB060CF4AD
:1006100047C02E0D3F1D401F511FA216B306C40632
:10062000D5060CF447C02091130C3091140C409166
:10063000150C5091160CDA01C9018E199F09A00BF7
:10064000B10BA816B906CA06DB062CF12E0D3F1D0C
:10065000401F511FA216B306C406D5065CF12091B7
:10066000170C3091180C4091190C50911A0CDA01AA
:10067000C9018E199F09A00BB10BA816B906CA06AD
:10068000DB0674F0E20EF31E041F151FAE14BF0448
:10069000C006D1067CF080E0662309F481E0682F73
:1006A000862F1F910F91FF90EF90DF90CF90BF901A
:1006B000AF90089561E0F4CFAF92BF92CF92DF92F6
:1006C000EF92FF920F931F935B016C01642F2091B7
:1006D0001B0C30911C0C40911D0C50911E0C8091F4
:1006E0001602909117027C010027F7FC0095102F4D
:1006F000DA01C9018E199F09A00BB10BA816B90622
:10070000CA06DB060CF44CC02E0D3F1D401F511FC6
:10071000A216B306C406D506C4F120911F0C309171
:10072000200C4091210C5091220CDA01C9018E1944
:100730009F09A00BB10BA816B906CA06DB0634F157
:100740002E0D3F1D401F511FA216B306C406D5062D
:10075000E4F02091230C3091240C4091250C509111
:10076000260CDA01C9018E199F09A00BB10BA8163E
:10077000B906CA06DB06A4F0E20EF31E041F151F1D
:10078000AE14BF04C006D1060CF461E0862F1F91A1
:100790000F91FF90EF90DF90CF90BF90AF900895B2
:1007A00080E0662309F481E0682FF0CF6F927F929A
:1007B0008F929F92AF92BF92CF92DF92EF92FF9271
:1007C0000F931F935B016C01642F6090270C709056
:1007D000280C8090290C90902A0C80911602909100
:1007E00017029C01442737FD4095542FD401C301C3
:1007F000821B930BA40BB50BA816B906CA06DB0621
:100800000CF474C0DA01C901860D971DA81DB91D2D
:10081000A816B906CA06DB060CF467C0E0902B0CDC
:10082000F0902C0C00912D0C10912E0CD801C701CA
:10083000821B930BA40BB50BA816B906CA06DB06E0
:100840000CF462C0E20EF31E041F151FAE14BF04A9
:10085000C006D1060CF449C0E0902F0CF090300C8B
:100860000091310C1091320CD801C701821B930BFF
:10087000A40BB50BA816B906CA06DB06BCF1E20E3E
:10088000F31E041F151FAE14BF04C006D1066CF181
:10089000E090330CF090340C0091350C1091360C34
:1008A000D801C701821B930BA40BB50BA816B90680
:1008B000CA06DB064CF1E20EF31E041F151FAE1430
:1008C000BF04C006D1068CF080E098ECA0E0B0E058
:1008D000680E791E8A1E9B1E621A730A840A950A84
:1008E000A614B704C804D9040CF061E0862F1F9148
:1008F0000F91FF90EF90DF90CF90BF90AF909F90BF
:100900008F907F906F90089580E0662309F481E0D6
:10091000682FECCF6F927F928F929F92AF92BF928F
:10092000CF92DF92EF92FF920F931F935B016C01C6
:10093000642F6090370C7090380C8090390C909038
:100940003A0C80911602909117029C01442737FDC2
:100950004095542FD401C301821B930BA40BB50BFC
:10096000A816B906CA06DB060CF474C0DA01C90180
:10097000860D971DA81DB91DA816B906CA06DB0667
:100980000CF467C0E0903B0CF0903C0C00913D0CE7
:1009900010913E0CD801C701821B930BA40BB50B21
:1009A000A816B906CA06DB060CF462C0E20EF31EF6
:1009B000041F151FAE14BF04C006D1060CF449C0B5
:1009C000E0903F0CF090400C0091410C1091420CD3
:1009D000D801C701821B930BA40BB50BA816B9064F
:1009E000CA06DB06BCF1E20EF31E041F151FAE148F
:1009F000BF04C006D1066CF1E090430CF090440CAB
:100A00000091450C1091460CD801C701821B930B35
:100A1000A40BB50BA816B906CA06DB064CF1E20E0C
:100A2000F31E041F151FAE14BF04C006D1068CF0C0
:100A300080E098ECA0E0B0E0680E791E8A1E9B1E54
:100A4000621A730A840A950AA614B704C804D90462
:100A50000CF061E0862F1F910F91FF90EF90DF90D7
:100A6000CF90BF90AF909F908F907F906F900895A0
:100A700080E0662309F481E0682FECCFE3E0F1E049
:100A800080818081E6E0F1E09081E08190E08095D6
:100A90009095807490709595879595958795959587
:100AA00087959595879584700895E3E0F1E020811E
:100AB000E081E6E0F1E09081808180958170909501
:100AC0009270892B30E020953095207230703595EA
:100AD000279535952795822B88700895E3E0F1E0FE
:100AE0008081E081E6E0F1E0808180818095817005
:100AF0000895E3E0F1E08081E081E6E0F1E08081CB
:100B0000E0818095827008951F920F920FB60F9228
:100B100011248F939F938091030180910301809111
:100B200006018091060180910B01886F80930B0173
:100B3000809103019091030190910601909106012B
:100B400090E08095909585FF05C080910B01877F8F
:100B500080930B0180910301809103019091060124
:100B60009091060190E08095909586FF05C0809158
:100B70000B018F7D80930B01809103018091030114
:100B8000809106019091060181FD05C080910B01C5
:100B90008F7E80930B0180910301809103018091EE
:100BA00006018091060180FD05C080910B018F77C1
:100BB00080930B019F918F910F900FBE0F901F900C
:100BC00018951F920F920FB60F9211248F939F9337
:100BD00080910301809103018091060180910601BB
:100BE00080910B01886F80930B018091030190919C
:100BF0000301909106019091060190E080959095F7
:100C000085FF05C080910B01877F80930B01809148
:100C1000030180910301909106019091060190E0FB
:100C20008095909586FF05C080910B018F7D809304
:100C30000B01809103018091030180910601909145
:100C4000060181FD05C080910B018F7E80930B0111
:100C5000809103018091030180910601809106013A
:100C600080FD05C080910B018F7780930B019F91D0
:100C70008F910F900FBE0F901F90189581E0809379
:100C8000FB098093FC09089581E08093FB09089596
:100C900081E08093FC0908958091FB09089580917B
:100CA000FC0908958091FD09089560E070E080E0FE
:100CB00090E00E948A3E60E070E080E090E00E9458
:100CC000103F0E9460438823E1F70E94B8388823D0
:100CD000E1F7089560E070E080E090E00E948A3ED5
:100CE00060E070E080E090E00E94103F0E9460436E
:100CF0008823E1F70E94B8388823E1F70E94773112
:100D00000E94163160E070E080E090E00E94693E51
:100D100060E070E080E090E00E9421380E94733132
:100D2000089560E070E080E090E00E948A3E60E01C
:100D300070E080E090E00E94103F0E9460438823B2
:100D4000E1F70E94B8388823E1F70E9477310E94CA
:100D5000ED3060E070E080E090E00E94483E60E0AE
:100D600070E080E090E00E9418380E94733108958E
:100D70001F9360E070E080E090E00E948A3E60E0B7
:100D800070E080E090E00E94103F0E946043882362
:100D9000E1F70E94B8388823E1F70E9477310E947A
:100DA000ED3060E070E080E090E00E94483E60E05E
:100DB00070E080E090E00E9418380E9473311FB705
:100DC000F8940E94BB300E949E0180E00E945E3138
:100DD0001FBF1F9108951F9360E070E080E090E0D6
:100DE0000E948A3E60E070E080E090E00E94103F48
:100DF0000E9460438823E1F70E94B8388823E1F716
:100E00000E9477310E94163160E070E080E090E04F
:100E10000E94693E60E070E080E090E00E9421382E
:100E20000E9473311FB7F8940E94D4300E949E0133
:100E300080E00E945E311FBF1F9108951F9381E0E3
:100E40000E94333681E00E945E3160E070E080E015
:100E500090E00E948A3E60E070E080E090E00E94B6
:100E6000103F0E9460438823E1F70E94B83888232E
:100E7000E1F70E9477310E94ED3060E070E080E0A1
:100E800090E00E94483E60E070E080E090E00E94C8
:100E900018380E9473310E943E05882379F564E971
:100EA00071E180E090E00E948A3E0E943E05882326
:100EB00061F40E94D1390E94A7542CE136EC45E43C
:100EC00057E40E94055487FDF0CF60E070E080E0B9
:100ED00090E00E948A3E60E070E080E090E00E9436
:100EE000103F0E9460438823E1F70E94B8388823AE
:100EF000E1F70E943E05882309F45BC060E070E0E2
:100F000080E090E00E948A3E60E070E080E090E047
:100F10000E94103F0E9460438823E1F70E94B83886
:100F20008823E1F70E9477310E94ED3060E070E0A5
:100F300080E090E00E94483E60E070E080E090E059
:100F40000E9418380E94733168E17CEF8FEF9FEFA9
:100F50000E948A3E0E94D139611571058105910573
:100F6000C9F30E943E05882361F00E94D1390E9496
:100F7000A75425E534E547E357E40E949055181639
:100F800084F360E070E080E090E00E948A3E60E0E0
:100F900070E080E090E00E94103F0E946043882350
:100FA000E1F70E94B8388823E1F70E943E058823C4
:100FB00099F160E070E080E090E00E948A3E60E09D
:100FC00070E080E090E00E94103F0E946043882320
:100FD000E1F70E94B8388823E1F70E9477310E9438
:100FE000ED3060E070E080E090E00E94483E60E01C
:100FF00070E080E090E00E9418380E9473311FB7C3
:10100000F8940E94BB300E949E0180E00E945E31F5
:101010001FBF81E01F91089560E070E080E090E0E4
:101020000E948A3E60E070E080E090E00E94103F05
:101030000E9460438823E1F70E94B8388823E1F7D3
:101040000E9477310E94ED3060E070E080E090E037
:101050000E94483E60E070E080E090E00E94183816
:101060000E94733168EE73E080E090E00E948A3E57
:101070000E943E05882359F40E94D13997FD07C08C
:101080000E94D139685E7340804090408CF360E0EC
:1010900070E080E090E00E948A3E60E070E080E0D6
:1010A00090E00E94103F0E9460438823E1F70E9475
:1010B000B8388823E1F70E943E05882309F479CFE8
:1010C0000E94910668EC70E080E090E00E948A3E09
:1010D0000E94D139635D734080409040CCF30E9400
:1010E00055060E9491060E943E05882309F09AC089
:1010F0006CE67EEE8FEF9FEF0E948A3E0E943E05D7
:10110000882371F00E94D1391616170618061906A1
:10111000ACF70E94D139615177428040904074F71A
:101120000E9455060E943E05882309F042CF0E9486
:1011300091066CE67EEE8FEF9FEF0E948A3E0E9442
:101140003E05882371F40E94D13916161706180639
:101150001906ACF70E94D139615177428040904026
:1011600074F70E9455060E943E05882309F421CF9A
:101170000E94910668E17CEF8FEF9FEF0E948A3E0C
:101180000E943E05882361F00E94D1390E94A75435
:1011900026E535E545E855EC0E949055181684F390
:1011A0000E9455060E943E05882309F002CF0E9446
:1011B000910668EE73E080E090E00E948A3E0E9413
:1011C0003E05882359F40E94D13997FD07C00E943B
:1011D000D139685E7340804090408CF30E94550680
:1011E0000E943E05882309F4E4CE0E94910668EC33
:1011F00070E080E090E00E948A3E0E94D139635DF9
:10120000734080409040CCF30E9455060E949106A6
:101210000E943E05882309F4CCCE0E945505882300
:1012200031F4C7CE0E945505882309F461CF10928E
:10123000FB090E94B80680E0EDCE1F9381E00E947A
:10124000333681E00E945E3160E070E080E090E043
:101250000E948A3E60E070E080E090E00E94103FD3
:101260000E9460438823E1F70E94B8388823E1F7A1
:101270000E9477310E94163160E070E080E090E0DB
:101280000E94693E60E070E080E090E00E942138BA
:101290000E9473310E947905882351F56CE67EEE39
:1012A0008FEF9FEF0E94103F0E947905882339F449
:1012B0000E94DD39605078438F4F9F4FACF760E05C
:1012C00070E080E090E00E948A3E60E070E080E0A4
:1012D00090E00E94103F0E9460438823E1F70E9443
:1012E000B8388823E1F70E947905882309F454C0AF
:1012F00060E070E080E090E00E948A3E60E070E094
:1013000080E090E00E94103F0E9460438823E1F754
:101310000E94B8388823E1F70E9477310E94163185
:1013200060E070E080E090E00E94693E60E070E084
:1013300080E090E00E9421380E94733168EE73E0F3
:1013400080E090E00E94103F0E947905882361F0C0
:101350000E94DD390E94A75426E535E545E855E4AD
:101360000E94055487FDF0CF60E070E080E090E0DF
:101370000E948A3E60E070E080E090E00E94103FB2
:101380000E9460438823E1F70E94B8388823E1F780
:101390000E947905882399F160E070E080E090E098
:1013A0000E948A3E60E070E080E090E00E94103F82
:1013B0000E9460438823E1F70E94B8388823E1F750
:1013C0000E9477310E94163160E070E080E090E08A
:1013D0000E94693E60E070E080E090E00E94213869
:1013E0000E9473311FB7F8940E94D4300E949E016E
:1013F00080E00E945E311FBF82E01F91089560E08F
:1014000070E080E090E00E948A3E60E070E080E062
:1014100090E00E94103F0E9460438823E1F70E9401
:10142000B8388823E1F70E9477310E94163160E0D6
:1014300070E080E090E00E94693E60E070E080E053
:1014400090E00E9421380E94733168E17CEF8FEFB9
:101450009FEF0E94103F0E947905882339F40E9473
:10146000DD39605078438F4F9F4FACF760E070E0FC
:1014700080E090E00E948A3E60E070E080E090E0D2
:101480000E94103F0E9460438823E1F70E94B83811
:101490008823E1F70E947905882309F47DCF0E9413
:1014A0006A0668E37FEF8FEF9FEF0E94103F0E9474
:1014B000DD3963597D4F8F4F9F4FCCF70E94550602
:1014C0000E946A060E947905882309F088C064E9B1
:1014D00071E180E090E00E94103F0E94790588232E
:1014E00039F00E94DD396150784C80409040ACF377
:1014F0000E9455060E947905882309F04DCF0E946D
:101500006A0664E971E180E090E00E94103F0E9469
:101510007905882339F40E94DD396150784C804088
:101520009040ACF30E9455060E947905882309F487
:1015300033CF0E946A0668EE73E080E090E00E947C
:10154000103F0E947905882361F00E94DD390E94D6
:10155000A75426E535E545E855E40E94055487FD86
:10156000F0CF0E9455060E947905882309F014CF18
:101570000E946A0668E17CEF8FEF9FEF0E94103FA8
:101580000E947905882339F40E94DD396050784340
:101590008F4F9F4FACF70E9455060E947905882314
:1015A00009F4FACE0E946A0668E37FEF8FEF9FEF9F
:1015B0000E94103F0E94DD3963597D4F8F4F9F4F2E
:1015C000CCF70E9455060E946A060E94790588237E
:1015D00009F4E2CE0E946E05882331F4DDCE0E942C
:1015E0006E05882309F473CF1092FC090E94EB0664
:1015F00080E003CF1F93DF93CF930F92CDB7DEB779
:101600001092FD098091FB09882309F04CC080915C
:10161000FC09882329F40F90CF91DF911F91089541
:101620000E944331182F198206C08981853038F411
:1016300089818F5F89830E941D098823B1F7898181
:10164000853009F462C00E946431882309F44BC0DC
:1016500060E27EE480E090E00E94D43D68ED7CEDA5
:101660008FEF9FEF0E94F23D60E576E480E090E02E
:1016700020E737E140E050E00E9422410E940E4303
:101680006851774480409040CCF70E940E436958DF
:1016900075448040904094F368E273E280E090E00B
:1016A0000E94F23D2AC00E944331182F198206C0C1
:1016B0008981853038F489818F5F89830E941E0774
:1016C0008823B1F78981853021F160E070E080E006
:1016D00090E02AE030E040E050E00E94C63F812FD9
:1016E0000E94333694CF60E070E080E090E02AE022
:1016F00030E040E050E00E942241812F0E943336CA
:101700000F90CF91DF911F91089581E08093FD09A3
:101710009ACF81E08093FD09D8CF8BB183608BB9DC
:101720008AB183608AB98CE08093B80084E08093AA
:10173000BC000895CF93DF93982FEA0184EA809349
:10174000BC008091BC0087FDEBC0E0E0F0E005C08C
:1017500087E2E031F80709F4D6C031968091BC00E9
:1017600087FFF6CFA0E0E051F74208F0CCC090939D
:10177000BB0084E88093BC008091BC0087FDD2C090
:10178000E0E0F0E005C057E2E031F50709F4BFC042
:1017900031968091BC0087FFF6CF50E0E051F742D0
:1017A00008F0B5C06093BB0084E88093BC008091D2
:1017B000BC0087FDB9C060E070E005C087E2603121
:1017C000780709F4A2C06F5F7F4F8091BC0087FF4C
:1017D000F5CF40E06051774208F097C084EA8093EB
:1017E000BC008091BC0087FDA1C060E070E005C036
:1017F00087E26031780709F482C06F5F7F4F809184
:10180000BC0087FFF5CFE0E06051774208F077C079
:1018100091609093BB0084E88093BC008091BC00F1
:1018200087FD86C060E070E005C087E26031780720
:1018300009F467C06F5F7F4F8091BC0087FFF5CFD1
:1018400080E06051774208F05CC0952F9A0F940FAA
:101850009E0F980FD90111971A161B060CF05BC04A
:1018600060E070E044EC4093BC008091BC0087FDD8
:1018700050C020E030E004C087E220313807D9F1C1
:101880002F5F3F4F8091BC0087FFF6CF80E0205153
:10189000374288F5980F8091BB00FE01E60FF71FD5
:1018A00080836F5F7F4F6A177B07ECF284E8809339
:1018B000BC008091BC0087FD31C020E030E004C056
:1018C00087E220313807C9F02F5F3F4F8091BC007D
:1018D00087FFF6CF60E02051374278F48091BB005B
:1018E000AC0FBD1F8C9384E98093BC00862F890FB9
:1018F000DF91CF91089581E0CDCF61E0EFCFE1E0BE
:1019000087CF81E0A2CFA1E032CF41E067CF51E0A5
:1019100049CF80E0BFCFA0E0B0E0C8CF60E0DECF2D
:10192000A0E025CF50E03ECF40E058CFE0E070CFC0
:1019300080E08BCF982F84EA8093BC008091BC001C
:1019400087FD11C0E0E0F0E005C087E2E031F80774
:1019500009F467C031968091BC0087FFF6CFE05153
:10196000F74208F05EC09093BB0084E88093BC000F
:101970008091BC0087FD11C0E0E0F0E005C087E287
:10198000E031F80709F44DC031968091BC0087FF23
:10199000F6CFE051F74208F044C06093BB0084E802
:1019A0008093BC008091BC00882384F060E070E0EC
:1019B00004C087E260317807A1F16F5F7F4F8091AB
:1019C000BC0087FFF6CF6051774258F51216130618
:1019D0001CF5A0E0B0E094E8FA01EA0FFB1F80815B
:1019E0008093BB009093BC008091BC0087FD10C029
:1019F00060E070E004C087E26031780791F06F5FCB
:101A00007F4F8091BC0087FFF6CF6051774248F44A
:101A10001196A217B30704F384E98093BC0080E019
:101A2000089581E00895982F84EA8093BC00809106
:101A3000BC0087FD12C020E030E005C087E2203105
:101A4000380709F45BC02F5F3F4F8091BC0087FFD0
:101A5000F5CF2051374208F051C09093BB0084E885
:101A60008093BC008091BC0087FD11C020E030E075
:101A700005C087E22031380709F440C02F5F3F4F8F
:101A80008091BC0087FFF5CF20513742B8F56093B5
:101A9000BB0084E88093BC008091BC0087FD10C02F
:101AA00020E030E004C087E22031380739F12F5FB1
:101AB0003F4F8091BC0087FFF6CF20513742F0F4B2
:101AC0004093BB0084E88093BC008091BC0087FDFC
:101AD00010C020E030E004C087E22031380771F008
:101AE0002F5F3F4F8091BC0087FFF6CF20513742D8
:101AF00028F484E98093BC0080E0089581E0089593
:101B00000E94133883E090E00E94543881E090E016
:101B10000E942A3881E080937E0A04C080917E0A68
:101B2000882381F00E94A50180937E0A0E94853C53
:101B30009093840A8093830A875F9F4F7CF310926F
:101B40007E0A089508950E94114D0E94723C88EF0C
:101B500080930A0180910B01886F80930B010E9492
:101B60008D0B0E948F4B0E94C63B0E947A010E94FF
:101B7000584C0E9484300E943F4C0E9460360E9464
:101B80003B460E945D300E9497010E94C002559A18
:101B90005D9A80E090E020E931E0F9013197F1F7BA
:101BA000019641E0843F9407C1F781E40E943C30F4
:101BB00078940E94584B0E9469300E94800D0E94C8
:101BC000D5020E9473380E9467310E9473310E94CF
:101BD0001E070E941D090E94A0520E943F310E94D0
:101BE00053310E9449310E945F370E94643188233B
:101BF00051F468ED7CED8FEF9FEF28E233E240E097
:101C000050E00E9422410E94C7010E949D110E9443
:101C100015388823C1F30E949A028093850A0E9496
:101C2000D13960937F0A7093800A8093810A9093E0
:101C3000820A4091850A44700E94D603882379F075
:101C400060917F0A7091800A8091810A9091820A46
:101C50004091850A48700E948A04882311F40E94EA
:101C600044060E949A028093850A0E94DD3960939F
:101C70007F0A7093800A8093810A9093820A409130
:101C8000850A41700E945C03882379F060917F0A85
:101C90007091800A8091810A9091820A4091850A10
:101CA00042700E94E102882311F40E9448060E94BB
:101CB0005206882309F0A7CF0E94FA0AA4CF8F9278
:101CC0009F92AF92BF92CF92DF92EF92FF920F93CB
:101CD0001F93CF93DF934C01EB015C01CC24B7FC45
:101CE000C094DC2CA092A20AB092A30AC092A40ACB
:101CF000D092A50A2091A20A3091A30A4091A40A89
:101D00005091A50AC601B5010E9403596093A20A29
:101D10007093A30A8093A40A9093A50A7E010027DA
:101D2000F7FC0095102FE092920AF092930A00932C
:101D3000940A1093950A2091920A3091930A409147
:101D4000940A5091950AC801B7010E940359609303
:101D5000920A7093930A8093940A9093950AE09262
:101D6000860AF092870A0093880A1093890A2091C4
:101D7000860A3091870A4091880A5091890AC601E3
:101D8000B5010E9403596093860A7093870A809375
:101D9000880A9093890A2097F1F4181419049CF486
:101DA00020E032E340E050E0B901CA01DF91CF9179
:101DB0001F910F91FF90EF90DF90CF90BF90AF9069
:101DC0009F908F900895892809F035C220E030E077
:101DD00040E050E0E9CF940197FC0EC2CE01D7FD60
:101DE00010C2281739070CF422C185ED9FE1A0E04D
:101DF000B0E080938A0A90938B0AA0938C0AB093E8
:101E00008D0A20918A0A30918B0A40918C0A509158
:101E10008D0A6091860A7091870A8091880A909154
:101E2000890A0E94035960938A0A70938B0A8093EF
:101E30008C0A90938D0A8091A20A9091A30AA09196
:101E4000A40AB091A50A80939E0A90939F0AA0933A
:101E5000A00AB093A10A60919E0A70919F0A809196
:101E6000A00A9091A10A29E130E040E050E00E94F0
:101E7000035960939E0A70939F0A8093A00A9093DF
:101E8000A10A8091920A9091930AA091940AB0912C
:101E9000950A80938E0A90938F0AA093900AB0932C
:101EA000910A20918E0A30918F0A4091900A5091A8
:101EB000910ADA01C901880F991FAA1FBB1F880F59
:101EC000991FAA1FBB1F880F991FAA1FBB1F821B28
:101ED000930BA40BB50B80938E0A90938F0AA0935B
:101EE000900AB093910A80919E0A90919F0AA091C6
:101EF000A00AB091A10A8093960A9093970AA093A2
:101F0000980AB093990A2091960A3091970A4091C5
:101F1000980A5091990A80918E0A90918F0AA09107
:101F2000900AB091910A820F931FA41FB51F80934E
:101F3000960A9093970AA093980AB093990A609191
:101F40008A0A70918B0A80918C0A90918D0A209157
:101F5000960A3091970A4091980A5091990A0E94E6
:101F60004459C901DA0180938A0A90938B0AA0939D
:101F70008C0AB0938D0A60918A0A70918B0A8091C5
:101F80008C0A90918D0A29E130E040E050E00E94F7
:101F9000035960938A0A70938B0A80938C0A9093FA
:101FA0008D0A80918A0A90918B0AA0918C0AB09137
:101FB0008D0AB095A095909581959F4FAF4FBF4FDB
:101FC00080938A0A90938B0AA0938C0AB0938D0A0F
:101FD00080918A0A90918B0AA0918C0AB0918D0A07
:101FE00080509E4CAF4FBF4F80938A0A90938B0ACC
:101FF000A0938C0AB0938D0A97FC08C180918A0A3D
:1020000090918B0AA0918C0AB0918D0A80939A0AC4
:1020100090939B0AA0939C0AB0939D0A20919A0AE0
:1020200030919B0A40919C0A50919D0ABDCE85ED4E
:102030009FE1A0E0B0E080938A0A90938B0AA0937E
:102040008C0AB0938D0A20918A0A30918B0A4091B4
:102050008C0A50918D0A6091860A7091870A80914E
:10206000880A9091890A0E94035960938A0A7093A2
:102070008B0A80938C0A90938D0A8091920A90919A
:10208000930AA091940AB091950A80939E0A909326
:102090009F0AA093A00AB093A10A60919E0A709132
:1020A0009F0A8091A00A9091A10A29E130E040E0C6
:1020B00050E00E94035960939E0A70939F0A809398
:1020C000A00A9093A10A8091A20A9091A30AA091DC
:1020D000A40AB091A50A80938E0A90938F0AA093C8
:1020E000900AB093910A20918E0A30918F0A409104
:1020F000900A5091910ADA01C901880F991FAA1F0D
:10210000BB1F880F991FAA1FBB1F880F991FAA1FEB
:10211000BB1F821B930BA40BB50B80938E0A90936D
:102120008F0AA093900AB093910A20919E0A309151
:102130009F0A4091A00A5091A10A80918E0A909125
:102140008F0AA091900AB091910A820F931FA41F49
:10215000B51F8093960A9093970AA093980AB0931C
:10216000990A60918A0A70918B0A80918C0A9091E9
:102170008D0A2091960A3091970A4091980A5091C1
:10218000990A0E944459C901DA0180938A0A9093FE
:102190008B0AA0938C0AB0938D0A60918A0A709181
:1021A0008B0A80918C0A90918D0A29E130E040E001
:1021B00050E00E94035960938A0A70938B0A8093BF
:1021C0008C0A90938D0AD7FF19CF97FC1FC080917E
:1021D0008A0A90918B0AA0918C0AB0918D0A805046
:1021E0009C49AF4FBF4F80939A0A90939B0AA0934C
:1021F0009C0AB0939D0A12CF222733272819390948
:10220000EDCD882799278C1B9D0BEBCD80918A0AF9
:1022100090918B0AA0918C0AB0918D0A80509446BF
:10222000A040B04080939A0A90939B0AA0939C0A86
:10223000B0939D0AF3CE20E03EEC4FEF5FEFB4CDBC
:102240006F927F928F929F92AF92BF92CF92DF92C6
:10225000EF92FF920F931F933B014C012FE330E06D
:1022600040E050E00E94225979018A018FE390E01A
:10227000A0E0B0E0E80EF91E0A1F1B1F1695079597
:10228000F794E794C401B301A80197010E94225971
:1022900059016A01AE0CBF1CC01ED11ED694C79452
:1022A000B794A794C401B301A60195010E942259D5
:1022B0002A0D3B1D4C1D5D1D56954795379527955D
:1022C000B901CA011F910F91FF90EF90DF90CF905D
:1022D000BF90AF909F908F907F906F900895CF9216
:1022E000DF92EF92FF920F931F936C01CB01BA0123
:1022F0000E94A7542DED35EA4EEF55E40E940C5490
:102300000E9409547B018C01F601608171818281F8
:1023100093810E94A754A80197010E9494550E949E
:102320007454F60160837183828393831F910F91AC
:10233000FF90EF90DF90CF9008950F931F930E942E
:10234000334B882319F100D000D000D0EDB7FEB791
:10235000319604EB1AE0ADB7BEB712961C930E93FC
:10236000119788E192E09383828388E790E09583D8
:1023700084830E947C538DB79EB706960FB6F8945F
:102380009EBF0FBE8DBFC8010E9444301F910F91A8
:1023900008955D9B05C085E492E00E944430089555
:1023A0008BE292E00E94443008950E9452068823F6
:1023B00029F481E892E00E944430089580E692E09A
:1023C0000E94443008950E946431882329F487ECE8
:1023D00092E00E944430089583EA92E00E944430E3
:1023E00008950E944331882329F08BE093E00E94F6
:1023F000443008958CEE92E00E94443008950F938B
:102400001F931FB7F8940E94D0429B01AC011FBFDD
:1024100097FD2FC06BE270E08DB79EB70A970FB69D
:10242000F8949EBF0FBE8DBFEDB7FEB7319604EB9B
:102430001AE0ADB7BEB712961C930E9311978BE2BC
:1024400093E09383828375836483268337834087F5
:1024500051870E947C538DB79EB70A960FB6F894A9
:102460009EBF0FBE8DBFC8010E9444301F910F91C7
:10247000089550954095309521953F4F4F4F5F4FB0
:102480006DE270E0C9CF0F931F931FB7F8940E94BD
:10249000AE429B01AC011FBF97FD2FC06BE270E005
:1024A0008DB79EB70A970FB6F8949EBF0FBE8DBF2B
:1024B000EDB7FEB7319604EB1AE0ADB7BEB7129692
:1024C0001C930E9311978AE493E093838283758320
:1024D000648326833783408751870E947C538DB75E
:1024E0009EB70A960FB6F8949EBF0FBE8DBFC80167
:1024F0000E9444301F910F9108955095409530955A
:1025000021953F4F4F4F5F4F6DE270E0C9CFCF92A3
:10251000DF92EF92FF920F931F931FB7F8940E94E0
:102520000E436B017C010E94D0421FBF2DB73EB706
:102530002C5030400FB6F8943EBF0FBE2DBFEDB704
:10254000FEB7319604EB1AE0ADB7BEB712961C93F6
:102550000E93119729E633E033832283C482D58218
:10256000E682F78260877187828793870E947C5317
:102570002DB73EB7245F3F4F0FB6F8943EBF0FBE56
:102580002DBFC8010E9444301F910F91FF90EF9022
:10259000DF90CF900895CF92DF92EF92FF920F934A
:1025A0001F931FB7F8940E94F2426B017C010E94B6
:1025B000AE421FBF2DB73EB72C5030400FB6F89437
:1025C0003EBF0FBE2DBFEDB7FEB7319604EB1AE04C
:1025D000ADB7BEB712961C930E93119729E833E05E
:1025E00033832283C482D582E682F7826087718733
:1025F000828793870E947C532DB73EB7245F3F4F5D
:102600000FB6F8943EBF0FBE2DBFC8010E944430E4
:102610001F910F91FF90EF90DF90CF9008954F9210
:102620005F926F927F928F929F92AF92BF92CF9262
:10263000DF92EF92FF920F931F93DFB6F8940E9400
:10264000F2422B013C010E94AE424B015C010E9410
:102650000E437B018C010E940E43DFBE2DB73EB7B7
:10266000245130400FB6F8943EBF0FBE2DBFEDB7DA
:10267000FEB7319624EBC22E2AE0D22EADB7BEB7FC
:102680001296DC92CE92119729EA33E033832283AB
:10269000448255826682778280869186A286B3863E
:1026A000E486F58606871787608B718B828B938B08
:1026B0000E947C532DB73EB72C5E3F4F0FB6F89467
:1026C0003EBF0FBE2DBFC6010E9444301F910F9127
:1026D000FF90EF90DF90CF90BF90AF909F908F9042
:1026E0007F906F905F904F9008950E9450318823A3
:1026F00029F082E094E00E944430089580EE93E057
:102700000E9444300895EF92FF920F931F930E940E
:1027100069387C010E946E382DB73EB72850304092
:102720000FB6F8943EBF0FBE2DBFEDB7FEB7319682
:1027300004EB1AE0ADB7BEB712961C930E93119737
:1027400025E234E033832283F582E4829783868313
:102750000E947C532DB73EB7285F3F4F0FB6F894C9
:102760003EBF0FBE2DBFC8010E9444301F910F9184
:10277000FF90EF9008952F923F924F925F926F9249
:102780007F928F929F92AF92BF92CF92DF92EF9201
:10279000FF920F931F93DF93CF9300D000D0CDB75C
:1027A000DEB70E94103E69837A838B839C830E94EC
:1027B0002C3E1B012C010E94903D3B014C010E94CC
:1027C000B23D5B016C010E94EC3C7B018C010E94DC
:1027D000F53C2DB73EB72C5130400FB6F8943EBFB4
:1027E0000FBE2DBFEDB7FEB7319624EB3AE0ADB783
:1027F000BEB712963C932E93119727E434E03383AF
:10280000228329813A814B815C81248335834683ED
:1028100057832086318642865386648675868686EF
:102820009786A08AB18AC28AD38AE48AF58A068BFF
:10283000178B608F718F828F938F0E947C534DB75F
:102840005EB7445E5F4F0FB6F8945EBF0FBE4DBFDC
:1028500084EB9AE00E9444300F900F900F900F90FD
:10286000CF91DF911F910F91FF90EF90DF90CF906C
:10287000BF90AF909F908F907F906F905F904F90A0
:102880003F902F9008950F931F930E94644B2DB794
:102890003EB7285030400FB6F8943EBF0FBE2DBF54
:1028A000EDB7FEB7319604EB1AE0ADB7BEB712969E
:1028B0001C930E93119720E934E0338322836483C1
:1028C0007583868397830E947C532DB73EB7285F1C
:1028D0003F4F0FB6F8943EBF0FBE2DBFC8010E94F8
:1028E00044301F910F9108950F931F930E946D4BD9
:1028F00000D000D000D0EDB7FEB7319604EB1AE05F
:10290000ADB7BEB712961C930E9311972CEA34E024
:1029100033832283958384830E947C538DB79EB733
:1029200006960FB6F8949EBF0FBE8DBFC8010E94D9
:1029300044301F910F9108950E948C4B882329F4F5
:1029400085EE94E00E944430089585EC94E00E9466
:10295000443008950F931F930E946D4B00D000D018
:1029600000D0EDB7FEB7319604EB1AE0ADB7BEB7B5
:1029700012961C930E93119726E035E03383228341
:10298000958384830E947C532DB73EB72A5F3F4FC7
:102990000FB6F8943EBF0FBE2DBFC8010E94443051
:1029A0008DB79EB708970FB6F8949EBF0FBE8DBF28
:1029B000EDB7FEB73196ADB7BEB712961C930E9326
:1029C00011978CE195E09383828380912D0B9091F8
:1029D0002E0BA0912F0BB091300B84839583A6838F
:1029E000B7830E947C532DB73EB7285F3F4F0FB689
:1029F000F8943EBF0FBE2DBFC8010E9444300E9414
:102A0000644BADB7BEB718970FB6F894BEBF0FBEF4
:102A1000ADBFEDB7FEB7319612961C930E9311978A
:102A200020E335E033832283648375838683978331
:102A30000E947C532DB73EB7285F3F4F0FB6F894E6
:102A40003EBF0FBE2DBFC8010E9444305D9933C008
:102A50008EE395E00E9444300E946431882399F10E
:102A600087E595E00E9444300E944331882399F520
:102A700084E895E00E9444300E945031882399F503
:102A800087EA95E00E9444300E945206882399F11B
:102A900080ED95E00E9444300E948C4B882399F58C
:102AA00088E096E00E9444308AE196E00E9444303B
:102AB0001F910F9108958AE495E00E9444300E948E
:102AC0006431882369F68DE695E00E9444300E94C7
:102AD0004331882369F285E995E00E9444300E94E1
:102AE0005031882369F28BEB95E00E9444300E94BC
:102AF0005206882369F683EE95E00E9444300E94D6
:102B00008C4B882369F287EF95E00E9444308AE17C
:102B100096E00E9444301F910F9108950F931F93E8
:102B2000FC018181843599F0823429F021E0822FE3
:102B30001F910F91089582818A30B1F120E08D308C
:102B4000A9F181E02827822F1F910F91089582819A
:102B50008A3011F08D3051F70E946D4B00D000D0BB
:102B600000D0EDB7FEB7319604EB1AE0ADB7BEB7B3
:102B700012961C930E9311972CEA34E03383228330
:102B8000958384830E947C538DB79EB706960FB6BB
:102B9000F8949EBF0FBE8DBFC8010E94443021E053
:102BA000822F1F910F91089520E0C1CF21E0C9CF5E
:102BB0002F923F924F925F926F927F928F929F924D
:102BC000AF92BF92CF92DF92EF92FF920F931F933B
:102BD000DF93CF9300D000D000D0CDB7DEB79E8377
:102BE0008D8380E090E0A0E0B0E08093B00A909305
:102BF000B10AA093B20AB093B30A80931D0B9093CD
:102C00001E0BA0931F0BB093200B8093250B90936A
:102C1000260BA093270BB093280B8093AA0A9093BE
:102C2000AB0AA093AC0AB093AD0A8D819E816FE18F
:102C300076E00E9462539093AF0A8093AE0A0097A9
:102C400009F465C084E296E00E944430BB248D8183
:102C50009E8166EC77E00E9462539093AF0A809366
:102C6000AE0A0097F1F08C010B5F1F4FC8016CECAE
:102C700077E043E050E00E945453009781F1C8018F
:102C800060ED77E044E050E00E945453009711F467
:102C90000C94A626179935C086EE97E00E94443022
:102CA000BB248D819E8168EF77E00E9462539093F0
:102CB000AF0A8093AE0A009769F10E9411380E9412
:102CC00079380E946D310E9477318FEF97E00E9432
:102CD00044308FB78F778FBFE8EFFFE709940E94EA
:102CE00015388823B9F60E9413380E9473380E9461
:102CF00067310E9473310E9444060E944806179B68
:102D0000CBCF85ED97E00E944430BB24CACFBB24D3
:102D1000B3949DCF8D819E8161E178E00E946253E2
:102D20009093AF0A8093AE0A009781F12DB73EB71A
:102D30002A5030400FB6F8943EBF0FBE2DBFEDB7FE
:102D4000FEB7319604EB1AE0ADB7BEB712961C93EE
:102D50000E93119789E198E09383828384E090E059
:102D6000958384831782168287E290E0918780871B
:102D70000E947C53EDB7FEB73A960FB6F894FEBFAB
:102D80000FBEEDBFC8010E944430BB248D819E81DF
:102D900063E578E00E9462539093AF0A8093AE0A95
:102DA000009709F483C28AE598E00E9444302DB769
:102DB0003EB7285030400FB6F8943EBF0FBE2DBF2F
:102DC000EDB7FEB7319604EB1AE0ADB7BEB7129679
:102DD0001C930E93119766E6E62E68E0F62EF382BA
:102DE000E28280910F0C9091100CA091110CB09187
:102DF000120C84839583A683B7830E947C53EDB71E
:102E0000FEB738960FB6F894FEBF0FBEEDBFC801EF
:102E10000E9444302DB73EB7285030400FB6F8948A
:102E20003EBF0FBE2DBFEDB7FEB73196ADB7BEB7F3
:102E300012961C930E931197F382E2828091130CE9
:102E40009091140CA091150CB091160C848395836D
:102E5000A683B7830E947C53EDB7FEB738960FB6B2
:102E6000F894FEBF0FBEEDBFC8010E9444302DB7DD
:102E70003EB7285030400FB6F8943EBF0FBE2DBF6E
:102E8000EDB7FEB73196ADB7BEB712961C930E9351
:102E90001197F382E2828091170C9091180CA09107
:102EA000190CB0911A0C84839583A683B7830E9472
:102EB0007C53EDB7FEB738960FB6F894FEBF0FBE41
:102EC000EDBFC8010E9444302DB73EB728503040B6
:102ED0000FB6F8943EBF0FBE2DBFEDB7FEB73196CB
:102EE000ADB7BEB712961C930E931197F382E28290
:102EF00080911B0C90911C0CA0911D0CB0911E0C8C
:102F000084839583A683B7830E947C53EDB7FEB775
:102F100038960FB6F894FEBF0FBEEDBFC8010E94F1
:102F200044302DB73EB7285030400FB6F8943EBF1E
:102F30000FBE2DBFEDB7FEB73196ADB7BEB7129637
:102F40001C930E931197F382E28280911F0C909153
:102F5000200CA091210CB091220C84839583A68330
:102F6000B7830E947C53EDB7FEB738960FB6F8943E
:102F7000FEBF0FBEEDBFC8010E9444302DB73EB763
:102F8000285030400FB6F8943EBF0FBE2DBFEDB7AE
:102F9000FEB73196ADB7BEB712961C930E9311973C
:102FA000F382E2828091230C9091240CA091250C55
:102FB000B091260C84839583A683B7830E947C53AB
:102FC000EDB7FEB738960FB6F894FEBF0FBEEDBF53
:102FD000C8010E9444302DB73EB7285030400FB68C
:102FE000F8943EBF0FBE2DBFEDB7FEB73196ADB71B
:102FF000BEB712961C930E931197F382E2828091D2
:10300000270C9091280CA091290CB0912A0C848354
:103010009583A683B7830E947C53EDB7FEB738969D
:103020000FB6F894FEBF0FBEEDBFC8010E9444303A
:103030002DB73EB7285030400FB6F8943EBF0FBEB4
:103040002DBFEDB7FEB73196ADB7BEB712961C9344
:103050000E931197F382E28280912B0C90912C0CAD
:10306000A0912D0CB0912E0C84839583A683B783F9
:103070000E947C53EDB7FEB738960FB6F894FEBFAA
:103080000FBEEDBFC8010E9444302DB73EB7285097
:1030900030400FB6F8943EBF0FBE2DBFEDB7FEB760
:1030A0003196ADB7BEB712961C930E931197F3826B
:1030B000E28280912F0C9091300CA091310CB09154
:1030C000320C84839583A683B7830E947C53EDB72B
:1030D000FEB738960FB6F894FEBF0FBEEDBFC8011D
:1030E0000E9444302DB73EB7285030400FB6F894B8
:1030F0003EBF0FBE2DBFEDB7FEB73196ADB7BEB721
:1031000012961C930E931197F382E2828091330CF6
:103110009091340CA091350CB091360C848395833A
:10312000A683B7830E947C53EDB7FEB738960FB6DF
:10313000F894FEBF0FBEEDBFC8010E9444302DB70A
:103140003EB7285030400FB6F8943EBF0FBE2DBF9B
:10315000EDB7FEB73196ADB7BEB712961C930E937E
:103160001197F382E2828091370C9091380CA091F4
:10317000390CB0913A0C84839583A683B7830E945F
:103180007C53EDB7FEB738960FB6F894FEBF0FBE6E
:10319000EDBFC8010E9444302DB73EB728503040E3
:1031A0000FB6F8943EBF0FBE2DBFEDB7FEB73196F8
:1031B000ADB7BEB712961C930E931197F382E282BD
:1031C00080913B0C90913C0CA0913D0CB0913E0C39
:1031D00084839583A683B7830E947C53EDB7FEB7A3
:1031E00038960FB6F894FEBF0FBEEDBFC8010E941F
:1031F00044302DB73EB7285030400FB6F8943EBF4C
:103200000FBE2DBFEDB7FEB73196ADB7BEB7129664
:103210001C930E931197F382E28280913F0C909160
:10322000400CA091410CB091420C84839583A683FD
:10323000B7830E947C53EDB7FEB738960FB6F8946B
:10324000FEBF0FBEEDBFC8010E9444302DB73EB790
:10325000285030400FB6F8943EBF0FBE2DBFEDB7DB
:10326000FEB73196ADB7BEB712961C930E93119769
:103270008BE698E0938382838091430C9091440C79
:10328000A091450CB091460C84839583A683B783A7
:103290000E947C53EDB7FEB738960FB6F894FEBF88
:1032A0000FBEEDBFC8010E944430BB248D819E81BA
:1032B00063E778E00E9462539093AF0A8093AE0A6E
:1032C000009739F00E94774C8FE798E00E944430D5
:1032D000BB248D819E8168E978E00E9462539093BF
:1032E000AF0A8093AE0A0097E9F08C01085F1F4F88
:1032F000C80161EA78E047E050E00E94545300972B
:1033000011F00C94B02681E090E00E942A380E94CF
:103310006438019711F40C9445278AEC98E00E94D8
:103320004430BB248D819E8163EE78E00E9462531D
:103330008C0190931C0B80931B0B009711F40C9441
:10334000DB286BEE78E00E946253FC019093AF0A99
:103350008093AE0A009711F40C94CA2985818C32AF
:10336000B9F08A30A9F08D3099F0803311F40C94C3
:10337000052D813311F40C943F2D823311F40C94FC
:10338000722A83E090E00E9454380E948313BB2489
:103390000E9464380E942A388D819E816DEF78E00A
:1033A0000E9462532C019093AF0A8093AE0A00975B
:1033B00011F40C948C291092180B1092190B55E0F3
:1033C000852E912C880E991EDC0115968C918C32DD
:1033D00011F40C94F4298A3011F40C94F4298D30F2
:1033E00011F40C94F42981E08093190B46E0842EAB
:1033F000912C840C951CF20186818C3211F40C9472
:103400006F2A8A3011F40C946F2A8D3011F40C94C9
:103410006F2A82E08093190B37E0832E912C840C65
:10342000951CD20117968C918C3211F40C94782A49
:103430008A3011F40C94782A8D3011F40C94782A87
:1034400083E08093190B98E0892E912C840C951CB5
:10345000F20180858C3211F40C947B2A8A3011F4AD
:103460000C947B2A8D3011F40C947B2A84E0809399
:10347000190B09E0802E912C840C951CD201199611
:103480008C918C3211F40C94EF2C8A3011F40C9442
:10349000EF2C8D3011F40C94EF2C85E08093190BF8
:1034A000BAE08B2E912C840C951CF20182858C3213
:1034B00011F40C94022D8A3011F40C94022D8D30ED
:1034C00011F40C94022D86E08093190BFBE08F2EF3
:1034D000912C840C951CD2011B968C918C3211F48A
:1034E0000C941B2D8A3011F40C941B2D8D3011F48B
:1034F0000C941B2D87E08093190B7CE0872E912C78
:10350000840C951CF20184858C3211F40C942E2DC0
:103510008A3011F40C942E2D8D3011F40C942E2D34
:1035200088E08093190B5DE0852E912C840C951C0E
:10353000D2011D968C918C3211F40C94472D8A3057
:1035400011F40C94472D8D3011F40C94472D89E023
:103550008093190B3EE0832E912C840C951CF20174
:1035600086858C3211F40C944A2D8A3011F40C9417
:103570004A2D8D3011F40C944A2D8AE08093190B5A
:103580008D819E8166E179E00E94625390931C0BCD
:1035900080931B0B009711F40C94BE286EE179E028
:1035A0000E946253FC019093AF0A8093AE0A009789
:1035B00051F084818A3009F4CAC78D3009F4C7C735
:1035C0008C3209F4C4C700911B0B10911C0BC8016D
:1035D00063E279E00E946253FC019093AF0A80930A
:1035E000AE0A009769F086818A3011F40C94FE22AD
:1035F0008D3011F40C94FE228C3211F40C94FE22C6
:10360000C8016AE279E00E946253FC019093AF0A1C
:103610008093AE0A009751F084818A3009F49BC7E9
:103620008D3009F498C78C3209F495C7C8016FE250
:1036300079E00E946253FC019093AF0A8093AE0A36
:10364000009751F082858A3009F491C78D3009F4D2
:103650008EC78C3209F48BC7C8016AE379E00E94F7
:103660006253FC019093AF0A8093AE0A009751F029
:1036700081858A3009F483C78D3009F480C78C3284
:1036800009F47DC7C80164E479E00E946253FC013B
:103690009093AF0A8093AE0A009751F084858A30E8
:1036A00009F475C78D3009F472C78C3209F46FC7FD
:1036B000C80168E679E00E9462539093AF0A809354
:1036C000AE0A009739F18C010D5F1F4FC8016CECF9
:1036D00077E043E050E00E945453009711F00C94BF
:1036E000E0265D980E94C911BB24E091AE0AF091DA
:1036F000AF0A83818A3011F40C942D278D3011F498
:103700000C942D278C3211F40C942D2700911B0B57
:1037100010911C0BC8016CE679E00E9462539093F3
:10372000AF0A8093AE0A009771F18C01075F1F4FBB
:10373000C80161EA78E047E050E00E9454530097E6
:1037400011F40C94D726C80169EA78E048E050E00B
:103750000E945453009711F40C941829E091AE0A7A
:10376000F091AF0A81858A3011F40C9437278D309F
:1037700011F40C9437278C3211F40C9437270091F4
:103780001B0B10911C0BC80166E779E00E94625385
:103790009093AF0A8093AE0A009771F18C010C5F91
:1037A0001F4FC80161EA78E047E050E00E9454539F
:1037B000009711F40C94CD26C80169EA78E048E03E
:1037C00050E00E945453009711F40C940F29E0919B
:1037D000AE0AF091AF0A84818A3011F40C9432273A
:1037E0008D3011F40C9432278C3211F40C94322762
:1037F00000911B0B10911C0BC8016BE779E00E9434
:1038000062539093AF0A8093AE0A009739F18C010E
:10381000095F1F4FC80161EA78E047E050E00E946D
:103820005453009711F40C94C126C80169EA78E05A
:1038300048E050E00E945453009711F40C941F2963
:10384000E091AE0AF091AF0A87818A3021F08D3085
:1038500011F08C3219F40E947513BB248D819E8166
:103860006AE879E00E94625390931C0B80931B0BD3
:10387000009771F16DE879E00E9462533C019093EA
:10388000AF0A8093AE0A009759F0DC011496CC90F1
:10389000149715968C9115978C3211F40C944C2733
:1038A000BB24B39480911B0B90911C0B62E979E0CF
:1038B0000E9462532C019093AF0A8093AE0A009746
:1038C00039F0FC01C48085818C3211F40C940A28F3
:1038D0008D819E8167E979E00E9462537C0190931B
:1038E0001C0B80931B0B009711F40C94AD286EE910
:1038F00079E00E9462539093AF0A8093AE0A0097DA
:1039000009F4BCC0DC018E916D010894C11CD11C6E
:10391000833609F4B3C01092180B1092190BF601FC
:1039200083818C3211F40C945D2D8A3011F40C9447
:103930005D2D8D3011F40C945D2D81E08093190B79
:10394000D60114968C918C3211F40C947F2D8A3010
:1039500011F40C947F2D8D3011F40C947F2D82E0A6
:103960008093190BF60185818C3211F40C94812D12
:103970008A3011F40C94812D8D3011F40C94812D2A
:1039800083E08093190BD60116968C918C3211F43A
:103990000C94852D8A3011F40C94852D8D3011F402
:1039A0000C94852D84E08093190BF60187818C326D
:1039B00011F40C94A52D8A3011F40C94A52D8D30A2
:1039C00011F40C94A52D85E08093190BD60118965F
:1039D0008C918C3211F40C94F1268A3011F40C94F1
:1039E000F1268D3011F40C94F12686E08093190BAA
:1039F000F60181858C3211F40C949D2E8A3011F4DD
:103A00000C949D2E8D3011F40C949D2E87E08093A4
:103A1000190BD6011A968C918C3211F40C949F2EAE
:103A20008A3011F40C949F2E8D3011F40C949F2E3B
:103A300088E08093190BF60183858C3211F40C9485
:103A4000A12E8A3011F40C94A12E8D3011F40C9417
:103A5000A12E89E08093190BD6011C968C918C3293
:103A600011F40C94A32E8A3011F40C94A32E8D30F3
:103A700011F40C94A32E8AE08093190BC70162EA1B
:103A800079E00E9462536C019093AF0A8093AE0A72
:103A9000009709F4B3C01092180B1092190BFC0197
:103AA00084818C3211F40C94B32C8A3011F40C9470
:103AB000B32C8D3011F40C94B32C81E08093190B4E
:103AC000D60115968C918C3211F40C94F92C8A3015
:103AD00011F40C94F92C8D3011F40C94F92C82E033
:103AE0008093190BF60186818C3211F40C94192DF8
:103AF0008A3011F40C94192D8D3011F40C94192D79
:103B000083E08093190BD60117968C918C3211F4B7
:103B10000C941E2D8A3011F40C941E2D8D3011F44E
:103B20000C941E2D84E08093190BF60180858C3255
:103B300011F40C943A2D8A3011F40C943A2D8D30F6
:103B400011F40C943A2D85E08093190BD601199647
:103B50008C918C3211F40C944F2D8A3011F40C940A
:103B60004F2D8D3011F40C944F2D86E08093190B5E
:103B7000F60182858C3211F40C94662D8A3011F492
:103B80000C94662D8D3011F40C94662D87E0809393
:103B9000190BD6011B968C918C3211F40C94742D58
:103BA0008A3011F40C94742D8D3011F40C94742D12
:103BB00088E08093190BF60184858C3211F40C9403
:103BC0008D2D8A3011F40C948D2D8D3011F40C94C0
:103BD0008D2D89E08093190BD6011D968C918C3226
:103BE00011F40C948B2D8A3011F40C948B2D8D30A4
:103BF00011F40C948B2D8AE08093190BC70167EAAE
:103C000079E00E9462535C019093AF0A8093AE0A00
:103C1000009709F4B3C01092180B1092190BFC0115
:103C200084818C3211F40C942A2C8A3011F40C9477
:103C30002A2C8D3011F40C942A2C81E08093190BDE
:103C4000D50115968C918C3211F40C94F72C8A3096
:103C500011F40C94F72C8D3011F40C94F72C82E0B5
:103C60008093190BF50186818C3211F40C94102D80
:103C70008A3011F40C94102D8D3011F40C94102D09
:103C800083E08093190BD50117968C918C3211F437
:103C90000C94272D8A3011F40C94272D8D3011F4BB
:103CA0000C94272D84E08093190BF50180858C32CC
:103CB00011F40C94352D8A3011F40C94352D8D307F
:103CC00011F40C94352D85E08093190BD5011996CC
:103CD0008C918C3211F40C94562D8A3011F40C9482
:103CE000562D8D3011F40C94562D86E08093190BCF
:103CF000F50182858C3211F40C946D2D8A3011F40B
:103D00000C946D2D8D3011F40C946D2D87E0809303
:103D1000190BD5011B968C918C3211F40C946F2DDC
:103D20008A3011F40C946F2D8D3011F40C946F2D9A
:103D300088E08093190BF50184858C3211F40C9482
:103D4000A12D8A3011F40C94A12D8D3011F40C9416
:103D5000A12D89E08093190BD5011D968C918C3291
:103D600011F40C949F2D8A3011F40C949F2D8D30FA
:103D700011F40C949F2D8AE08093190B00911B0B7A
:103D800010911C0BC8016CEA79E00E9462535C013F
:103D90009093AF0A8093AE0A009709F4B3C01092D3
:103DA000180B1092190BFC0184818C3211F40C94C5
:103DB0009D2B8A3011F40C949D2B8D3011F40C94B2
:103DC0009D2B81E08093190BD50115968C918C3237
:103DD00011F40C94F52C8A3011F40C94F52C8D30E0
:103DE00011F40C94F52C82E08093190BF501868177
:103DF0008C3211F40C940E2D8A3011F40C940E2D8B
:103E00008D3011F40C940E2D83E08093190BD501A5
:103E100017968C918C3211F40C94232D8A3011F466
:103E20000C94232D8D3011F40C94232D84E0809379
:103E3000190BF50180858C3211F40C94452D8A30D4
:103E400011F40C94452D8D3011F40C94452D85E022
:103E50008093190BD50119968C918C3211F40C9426
:103E60005B2D8A3011F40C945B2D8D3011F40C9481
:103E70005B2D86E08093190BF50182858C3211F45D
:103E80000C946B2D8A3011F40C946B2D8D3011F441
:103E90000C946B2D87E08093190BD5011B968C91A8
:103EA0008C3211F40C947D2D8A3011F40C947D2DFC
:103EB0008D3011F40C947D2D88E08093190BF50161
:103EC00084858C3211F40C94892D8A3011F40C9471
:103ED000892D8D3011F40C94892D89E08093190B74
:103EE000D5011D968C918C3211F40C94872D8A305B
:103EF00011F40C94872D8D3011F40C94872D8AE0E9
:103F00008093190BC80161EB79E00E9462535C0158
:103F10009093AF0A8093AE0A009709F4B3C0109251
:103F2000180B1092190BFC0184818C3211F40C9443
:103F3000112B8A3011F40C94112B8D3011F40C9448
:103F4000112B81E08093190BD50115968C918C3241
:103F500011F40C94F22C8A3011F40C94F22C8D3064
:103F600011F40C94F22C82E08093190BF5018681F8
:103F70008C3211F40C94122D8A3011F40C94122D01
:103F80008D3011F40C94122D83E08093190BD50120
:103F900017968C918C3211F40C94292D8A3011F4DF
:103FA0000C94292D8D3011F40C94292D84E08093EC
:103FB000190BF50180858C3211F40C94372D8A3061
:103FC00011F40C94372D8D3011F40C94372D85E0BD
:103FD0008093190BD50119968C918C3211F40C94A5
:103FE000582D8A3011F40C94582D8D3011F40C9406
:103FF000582D86E08093190BF50182858C3211F4DF
:104000000C945F2D8A3011F40C945F2D8D3011F4D7
:104010000C945F2D87E08093190BD5011B968C9132
:104020008C3211F40C94712D8A3011F40C94712D92
:104030008D3011F40C94712D88E08093190BF501EB
:1040400084858C3211F40C949C2D8A3011F40C94DC
:104050009C2D8D3011F40C949C2D89E08093190BCC
:10406000D5011D968C918C3211F40C94992D8A30C7
:1040700011F40C94992D8D3011F40C94992D8AE043
:104080008093190BC80166EB79E00E9462535C01D2
:104090009093AF0A8093AE0A009709F4B3C01092D0
:1040A000180B1092190BFC0184818C3211F40C94C2
:1040B000892A8A3011F40C94892A8D3011F40C94D9
:1040C000892A81E08093190BD50115968C918C3249
:1040D00011F40C94FB2C8A3011F40C94FB2C8D30D1
:1040E00011F40C94FB2C82E08093190BF50186816E
:1040F0008C3211F40C940B2D8A3011F40C940B2D8E
:104100008D3011F40C940B2D83E08093190BD501A5
:1041100017968C918C3211F40C94202D8A3011F466
:104120000C94202D8D3011F40C94202D84E080937C
:10413000190BF50180858C3211F40C943C2D8A30DA
:1041400011F40C943C2D8D3011F40C943C2D85E031
:104150008093190BD50119968C918C3211F40C9423
:10416000512D8A3011F40C94512D8D3011F40C9492
:10417000512D86E08093190BF50182858C3211F464
:104180000C94682D8A3011F40C94682D8D3011F444
:104190000C94682D87E08093190BD5011B968C91A8
:1041A0008C3211F40C947A2D8A3011F40C947A2DFF
:1041B0008D3011F40C947A2D88E08093190BF50161
:1041C00084858C3211F40C94962D8A3011F40C9461
:1041D000962D8D3011F40C94962D89E08093190B57
:1041E000D5011D968C918C3211F40C94932D8A304C
:1041F00011F40C94932D8D3011F40C94932D8AE0CE
:104200008093190B0E94103E69837A838B839C8371
:104210000E942C3E1B012C010E94903D3B014C0151
:104220000E94B23D5B016C010E94EC3C7B018C0161
:104230000E94F53CEDB7FEB77C970FB6F894FEBF31
:104240000FBEEDBF319624EB3AE0ADB7BEB7129684
:104250003C932E93119727E434E033832283298102
:104260003A814B815C812483358346835783208642
:104270003186428653866486758686869786A08AAE
:10428000B18AC28AD38AE48AF58A068B178B608F3B
:10429000718F828F938F0E947C534DB75EB7445EBF
:1042A0005F4F0FB6F8945EBF0FBE4DBF84EB9AE030
:1042B0000E944430BB248D819E8161EC79E00E9494
:1042C000625390931C0B80931B0B009709F490C7CB
:1042D00065EC79E00E9462534C019093AF0A8093A1
:1042E000AE0A009709F45AC21092180B80E090E0D1
:1042F000A0E0B0E08093B00A9093B10AA093B20A14
:10430000B093B30A8093250B9093260BA093270BB1
:10431000B093280B1092190BD40114968C918C3207
:1043200011F40C947E2A8A3011F40C947E2A8D307C
:1043300011F40C947E2A81E08093190BF40185819D
:104340008C3211F40C94002D8A3011F40C94002D51
:104350008D3011F40C94002D82E08093190BD40160
:1043600016968C918C3211F40C94172D8A3011F41E
:104370000C94172D8D3011F40C94172D83E080933D
:10438000190BF40187818C3211F40C94252D8A309D
:1043900011F40C94252D8D3011F40C94252D84E00E
:1043A0008093190BD40118968C918C3211F40C94D3
:1043B000332D8A3011F40C94332D8D3011F40C947C
:1043C000332D85E08093190BF40181858C3211F433
:1043D0000C944D2D8A3011F40C944D2D8D3011F428
:1043E0000C944D2D86E08093190BD4011A968C9174
:1043F0008C3211F40C94622D8A3011F40C94622DDD
:104400008D3011F40C94622D87E08093190BF40128
:1044100083858C3211F40C94762D8A3011F40C942F
:10442000762D8D3011F40C94762D88E08093190B45
:10443000D4011C968C918C3211F40C948F2D8A30FF
:1044400011F40C948F2D8D3011F40C948F2D89E084
:104450008093190BF40185858C3211F40C94832D13
:104460008A3011F40C94832D8D3011F40C94832D2B
:104470008AE08093190BC090180BDC2CCC2009F437
:104480008DC180E090E0A0E8BFE38093210B909382
:10449000220BA093230BB093240BC092190B3EC0A8
:1044A000605360931A0BE090210BF090220B009167
:1044B000230B1091240B70E080E090E00E94A55443
:1044C000A80197010E9494559B01AC016091B00A2C
:1044D0007091B10A8091B20A9091B30A0E94A153DF
:1044E0006093B00A7093B10A8093B20A9093B30AB2
:1044F000C801B70120E030E040E251E40E94945549
:104500006093210B7093220B8093230B9093240BC9
:10451000DA94D092190BDD2009F479C0F401ED0D85
:10452000F11D63816D3209F0BBCF8091B00A90918B
:10453000B10AA091B20AB091B30AB0588093B00A00
:104540009093B10AA093B20AB093B30AE1CF0E944C
:104550007414BB2438C80E943E060E94FA0A0E94C6
:10456000D511BB2400911B0B10911C0B5FC80E943E
:10457000D511BB2400911B0B10911C0B6DC80E9420
:104580009C14BB2400911B0B10911C0B7BC82DB7F6
:104590003EB7285030400FB6F8943EBF0FBE2DBF37
:1045A000EDB7FEB7319604EB1AE0ADB7BEB7129681
:1045B0001C930E93119781E599E0938382838091F8
:1045C0002D0B90912E0BA0912F0BB091300B84836B
:1045D0009583A683B7830E947C53EDB7FEB73896C8
:1045E0000FB6F894FEBF0FBEEDBFC8010E94443065
:1045F000BB2400911B0B10911C0B5AC80E94431442
:10460000BB2400911B0B10911C0B0C94001B24016C
:104610004C0C511C5092AF0A4092AE0AD201159632
:104620008C911597833709F0B9C016968C9116971F
:104630008D3309F0B3C01092180B1092190B179616
:104640008C9117978C3211F40C94A92D8A3011F4A7
:104650000C94A92D8D3011F40C94A92D81E0809338
:10466000190B18968C918C3211F40C94B72E8A3059
:1046700011F40C94B72E8D3011F40C94B72E82E007
:104680008093190BF20181858C3211F40C94AE2EBB
:104690008A3011F40C94AE2E8D3011F40C94AE2EA1
:1046A00083E08093190BD2011A968C918C3211F40D
:1046B0000C94AB2E8A3011F40C94AB2E8D3011F487
:1046C0000C94AB2E84E08093190BF20183858C321D
:1046D00011F40C94CC2E8A3011F40C94CC2E8D3025
:1046E00011F40C94CC2E85E08093190BD2011C960A
:1046F0008C918C3211F40C94CF2E8A3011F40C94DE
:10470000CF2E8D3011F40C94CF2E86E08093190BB0
:10471000F20185858C3211F40C94D52E8A3011F477
:104720000C94D52E8D3011F40C94D52E87E0809307
:10473000190BD2011E968C918C3211F40C94D22E4E
:104740008A3011F40C94D22E8D3011F40C94D22EA8
:1047500088E08093190BF20187858C3211F40C9458
:10476000A72D8A3011F40C94A72D8D3011F40C94E0
:10477000A72D89E08093190BD20150968C918C3231
:1047800011F40C9423308A3011F40C9423308D30C2
:1047900011F40C9423308AE08093190B80911B0B49
:1047A00090911C0B6AEC79E00E9462534C0190934B
:1047B000AF0A8093AE0A009709F4F6C11092180B65
:1047C00080E090E0A0E0B0E080931D0B90931E0B82
:1047D000A0931F0BB093200B8093AA0A9093AB0A6F
:1047E000A093AC0AB093AD0A1092190BD4011496A1
:1047F0008C918C3209F488C68A3009F485C68D30D4
:1048000009F482C681E08093190BF40185818C3212
:1048100011F40C94FE2C8A3011F40C94FE2C8D3083
:1048200011F40C94FE2C82E08093190BD40116969F
:104830008C918C3211F40C94152D8A3011F40C9457
:10484000152D8D3011F40C94152D83E08093190BE8
:10485000F40187818C3211F40C942C2D8A3011F4E0
:104860000C942C2D8D3011F40C942C2D84E080931D
:10487000190BD40118968C918C3211F40C94312DB3
:104880008A3011F40C94312D8D3011F40C94312DAB
:1048900085E08093190BF40181858C3211F40C941E
:1048A000542D8A3011F40C94542D8D3011F40C9445
:1048B000542D86E08093190BD4011A968C918C327A
:1048C00011F40C94642D8A3011F40C94642D8D3005
:1048D00011F40C94642D87E08093190BF401838507
:1048E0008C3211F40C94782D8A3011F40C94782DBC
:1048F0008D3011F40C94782D88E08093190BD4013D
:104900001C968C918C3211F40C94912D8A3011F4F8
:104910000C94912D8D3011F40C94912D89E080939D
:10492000190BF40185858C3211F40C94A32D8A3077
:1049300011F40C94A32D8D3011F40C94A32D8AE066
:104940008093190BC090180BDC2CCC2009F42CC1DF
:1049500080E090E0A0E8BFE38093210B9093220BCE
:10496000A093230BB093240BC092190B3DC060534E
:1049700060931A0BE090210BF090220B0091230B17
:104980001091240B70E080E090E00E94A554A801F3
:1049900097010E9494559B01AC0160911D0B709191
:1049A0001E0B80911F0B9091200B0E94A1536093CE
:1049B0001D0B70931E0B80931F0B9093200BC8014F
:1049C000B70120E030E040E251E40E94945560934A
:1049D000210B7093220B8093230B9093240BDA947A
:1049E000D092190BDD20C9F0F401ED0DF11D6381AA
:1049F0006D3209F0BCCF80911D0B90911E0BA091E0
:104A00001F0BB091200BB05880931D0B90931E0B81
:104A1000A0931F0BB093200BE2CF24014C0C511C30
:104A20005092AF0A4092AE0AD20115968C9115971A
:104A3000833709F0B9C016968C9116978D3309F01B
:104A4000B3C01092180B1092190B17968C911797F0
:104A50008C3211F40C94242E8A3011F40C94242EF0
:104A60008D3011F40C94242E81E08093190B18964C
:104A70008C918C3211F40C94BA2E8A3011F40C946F
:104A8000BA2E8D3011F40C94BA2E82E08093190B5B
:104A9000F20181858C3211F40C94C02E8A3011F40D
:104AA0000C94C02E8D3011F40C94C02E83E08093B2
:104AB000190BD2011A968C918C3211F40C94BD2EE4
:104AC0008A3011F40C94BD2E8D3011F40C94BD2E4F
:104AD00084E08093190BF20183858C3211F40C94DD
:104AE000C92E8A3011F40C94C92E8D3011F40C9417
:104AF000C92E85E08093190BD2011C968C918C32C3
:104B000011F40C940F308A3011F40C940F308D3066
:104B100011F40C940F3086E08093190BF201858517
:104B20008C3211F40C9415308A3011F40C94153039
:104B30008D3011F40C94153087E08093190BD2015D
:104B40001E968C918C3211F40C9412308A3011F430
:104B50000C9412308D3011F40C94123088E0809354
:104B6000190BF20187858C3211F40C94222E8A30B5
:104B700011F40C94222E8D3011F40C94222E89E025
:104B80008093190BD20150968C918C3211F40C94B5
:104B900020308A3011F40C9420308D3011F40C94B4
:104BA00020308AE08093190B8D819E816FEC79E033
:104BB0000E946253FC019093AF0A8093AE0A009763
:104BC00009F43CC084818A3011F08DE084831FB7E2
:104BD000F8940E94F2426B017C010E94AE421FBF1A
:104BE0002DB73EB72C5030400FB6F8943EBF0FBEE5
:104BF0002DBFEDB7FEB7319604EB1AE0ADB7BEB7E7
:104C000012961C930E93119729E833E03383228385
:104C1000C482D582E682F782608771878287938714
:104C20000E947C53EDB7FEB73C960FB6F894FEBFDA
:104C30000FBEEDBFC8010E944430BB248D819E8110
:104C400064ED79E00E946253FC019093AF0A809377
:104C5000AE0A009709F410C184818A3011F08DE00A
:104C600084831FB7F8940E940E436B017C010E945D
:104C7000D0421FBF2DB73EB72C5030400FB6F8942E
:104C80003EBF0FBE2DBFEDB7FEB7319604EB1AE065
:104C9000ADB7BEB712961C930E93119729E633E079
:104CA00033832283C482D582E682F782608771874C
:104CB000828793870E947C53EDB7FEB73C960FB670
:104CC000F894FEBF0FBEEDBFC8010E944430809132
:104CD0002D0B90912E0BA0912F0BB091300B0196C4
:104CE000A11DB11D80932D0B90932E0BA0932F0B24
:104CF000B093300B0E94224BBB241092190B80E022
:104D0000ED81FE81E80FF11D10828091190B8F5FFC
:104D10008093190B8436A0F38B2D26960FB6F8944A
:104D2000DEBF0FBECDBFCF91DF911F910F91FF90DE
:104D3000EF90DF90CF90BF90AF909F908F907F903B
:104D40006F905F904F903F902F9008950E94113880
:104D50000E9479380E946D310E9477310C944A1676
:104D6000C80169EA78E048E050E00E945453009797
:104D700011F00C94871980E090E00E942A380C947E
:104D800087190E9446310E946431882309F45AC26F
:104D90000E947513BB240C94201C0E945206882389
:104DA00009F469C20E94F111BB240C94E71B0E9414
:104DB0003F310E940C370E94E311BB240C94AE1BC0
:104DC000C80160ED77E044E050E00E945453009742
:104DD00011F00C94751B5D9A0E94C911BB240C94B0
:104DE000751B85E0182F8093180B882311F40C9401
:104DF0003E1D80E090E0A0E8BFE38093210B9093FC
:104E0000220BA093230BB093240B1093190BF601E4
:104E1000E10FF11D82818D32C9F0805380931A0B0E
:104E20006091210B7091220B8091230B9091240BA8
:104E300020E030E040E251E40E9494556093210B61
:104E40007093220B8093230B9093240B115010939B
:104E5000190B1123E1F60C943E1D0E94C911BB24CD
:104E60000C94861B0E94F111BB240C94F81B0E9429
:104E7000E311BB240C94BF1BF1E0BF1609F027CF50
:104E80008CED99E00E94443038CF82EB98E00E948C
:104E90004430BB240C94921916968C911697833744
:104EA00011F00C94501C17968C9117978D3311F0BC
:104EB0000C94501C1092180B1092190B18968C9190
:104EC0008C3211F40C94FB2F8A3011F40C94FB2FCC
:104ED0008D3011F40C94FB2F81E08093190BF301BA
:104EE00081858C3211F40C94F82F8A3011F40C94D3
:104EF000F82F8D3011F40C94F82F82E08093190B69
:104F0000D3011A968C918C3211F40C94F52F8A30BF
:104F100011F40C94F52F8D3011F40C94F52F83E0DF
:104F20008093190BF30183858C3211F40C94F22FCA
:104F30008A3011F40C94F22F8D3011F40C94F22F6E
:104F400084E08093190BD3011C968C918C3211F460
:104F50000C94EF2F8A3011F40C94EF2F8D3011F454
:104F60000C94EF2F85E08093190BF30185858C322B
:104F700011F40C94EC2F8A3011F40C94EC2F8D303A
:104F800011F40C94EC2F86E08093190BD3011E963C
:104F90008C918C3211F40C94E92F8A3011F40C941A
:104FA000E92F8D3011F40C94E92F87E08093190BD1
:104FB000F30187858C3211F40C94E62F8A3011F4BA
:104FC0000C94E62F8D3011F40C94E62F88E080933A
:104FD000190BD30150968C918C3209F4F4C78A30A6
:104FE00009F4F1C78D3009F4EEC789E08093190BFD
:104FF000F30181898C3209F461C78A3009F45EC7F4
:105000008D3009F45BC78AE08093190BBB24B394FD
:105010000C94521C8681833711F00C94681C878194
:105020008D3311F00C94681C1092180B1092190B10
:1050300080858C3211F40C941E308A3011F40C945B
:105040001E308D3011F40C941E3081E08093190BCA
:10505000D20119968C918C3209F4EEC78A3009F48A
:10506000EBC78D3009F4E8C782E08093190BF20199
:1050700082858C3209F4DEC78A3009F4DBC78D30B3
:1050800009F4D8C783E08093190BD2011B968C9149
:105090008C3209F4CDC78A3009F4CAC78D3009F4BF
:1050A000C7C784E08093190BF20184858C3209F420
:1050B000D3C78A3009F4D0C78D3009F4CDC785E055
:1050C0008093190BD2011D968C918C3209F4C2C7C2
:1050D0008A3009F4BFC78D3009F4BCC786E08093DD
:1050E000190BF20186858C3209F4B2C78A3009F4B3
:1050F000AFC78D3009F4ACC787E08093190BD2019C
:105100001F968C918C3209F4A1C78A3009F49EC78E
:105110008D3009F49BC788E08093190BF2018089D8
:105120008C3209F4C9C68A3009F4C6C68D3009F438
:10513000C3C689E08093190BD20151968C918C32B1
:1051400009F436C68A3009F433C68D3009F430C606
:105150008AE08093190B0C94681C8D819E816BEB07
:1051600079E00E94625390931C0B80931B0B009775
:1051700009F4A1C80E94BB13BB249DC88D819E81E8
:1051800063E879E00E946253FC0190931C0B8093CA
:105190001B0B009711F40C942E1C86818A3031F081
:1051A0008D3021F08C3211F00C942E1C0E94AA1428
:1051B000BB240C942E1C8D819E8166EF78E00E94AA
:1051C0006253FC0190931C0B80931B0B009711F40E
:1051D0000C94CC1986818A3031F08D3021F08C32DC
:1051E00011F00C94CC190E948313BB240C94CC199D
:1051F0008D819E8169ED79E00E946253FC0190935C
:10520000AF0A8093AE0A009709F436CE82818A30C5
:1052100019F08D3009F030CE0E940F1358CD0E9446
:105220003F310E94DD390E94693E0E944931BACD6A
:105230000E94BA360E94E311BB240C94AE1B0E945C
:105240004931A6CD0E944331813009F0A1CD0E94A1
:10525000423686EA9AE00E94A700882309F098CD9A
:105260006091A60A7091A70A8091A80A9091A90A54
:105270000E94693E8DCD0E946431882309F092CD51
:105280000E944331813009F08DCD86EA9AE00E9478
:10529000A700882309F086CD0E94DD39E090A60A98
:1052A000F090A70A0091A80A1091A90A6E197F0927
:1052B000800B910B97FDA1C60E94DD392091A60AB3
:1052C0003091A70A4091A80A5091A90A621B730B5A
:1052D000840B950B60507243804090400CF062CD7F
:1052E0000E944236E090A60AF090A70A0091A80A10
:1052F0001091A90AC801B7010E94A75428EC31E710
:1053000044EF55EC0E94905518160CF04BCDC80197
:10531000B7010E94693E46CD8D819E8161E179E0B1
:105320000E946253FC0190931C0B80931B0B00970F
:1053300011F40C94C01A84818A3031F08D3021F040
:105340008C3211F00C94C01A0E94950200D000D04B
:1053500000D0EDB7FEB7319604EB1AE0ADB7BEB79B
:1053600012961C930E93119723E039E03383228326
:10537000958384830E947C53EDB7FEB736960FB6B3
:10538000F894FEBF0FBEEDBFC8010E944430BB249D
:105390000C94C01AC80161EF78E00E946253FC01CE
:1053A0009093AF0A8093AE0A009711F40C94C5193C
:1053B00084818C3211F40C94C8198A3011F40C9445
:1053C000C8198D3011F40C94C819803309F4C9C47C
:1053D000823309F4D8C4833309F4B7C481E090E080
:1053E0000E945C380C94C51966246092180B6620E4
:1053F00011F40C94C01A80E090E0A0E8BFE3809321
:10540000210B9093220BA093230BB093240B80E0ED
:1054100090E0A0E0B0E08093290B90932A0BA0933A
:105420002B0BB0932C0B6092190B0F2EF0E0EF2E8C
:10543000F0E0FF2EF0E80F2FFFE31F2FF02DF20119
:10544000E60DF11D6481605360931A0B70E080E0FB
:1054500090E00E94A554A80197010E9494552091C4
:10546000290B30912A0B40912B0B50912C0B0E9451
:10547000A1535B016C016093290B70932A0B8093FD
:105480002B0B90932C0BC801B70120E030E040E2D9
:1054900051E40E9494557B018C016093210B709321
:1054A000220B8093230B9093240B6A946092190B28
:1054B000662029F6D4018C918A3041F08D3031F08C
:1054C0008C3221F0BB24B3940C94C01AC601B501F0
:1054D0000E947454DC01CB010E94900235CF6624F7
:1054E000639483CF82E090E00E9454380C94C519F5
:1054F00022E0622E7ACF83E0682E77CF80E080931F
:10550000180BC82E0C943D2280E08093180BC82EF7
:105510001BCADD24D092180BDD2011F40C9402215B
:1055200080E090E0A0E8BFE38093210B9093220BF2
:10553000A093230BB093240B80E090E0A0E0B0E0B8
:105540008093290B90932A0BA0932B0BB0932C0BD9
:10555000D092190B3FC0605360931A0BE090210B5F
:10556000F090220B0091230B1091240B70E0882700
:1055700077FD8095982F0E94A754A80197010E945B
:1055800094559B01AC016091290B70912A0B80917D
:105590002B0B90912C0B0E94A1536093290B7093BD
:1055A0002A0B80932B0B90932C0BC801B70120E0A2
:1055B00030E040E251E40E9494556093210B7093D7
:1055C000220B8093230B9093240BDA94D092190B27
:1055D000DD20C9F0F501ED0DF11D63816D3209F09B
:1055E000BACF8091290B90912A0BA0912B0BB091EF
:1055F0002C0BB0588093290B90932A0BA0932B0B64
:10560000B0932C0BE2CF6091290B70912A0B809103
:105610002B0B90912C0B0E9474540E9439450C94D2
:105620000221DD24D092180BDD2011F40C944220CD
:1056300080E090E0A0E8BFE38093210B9093220BE1
:10564000A093230BB093240B80E090E0A0E0B0E0A7
:105650008093290B90932A0BA0932B0BB0932C0BC8
:10566000D092190B3FC0605360931A0BE090210B4E
:10567000F090220B0091230B1091240B70E08827EF
:1056800077FD8095982F0E94A754A80197010E944A
:1056900094559B01AC016091290B70912A0B80916C
:1056A0002B0B90912C0B0E94A1536093290B7093AC
:1056B0002A0B80932B0B90932C0BC801B70120E091
:1056C00030E040E251E40E9494556093210B7093C6
:1056D000220B8093230B9093240BDA94D092190B16
:1056E000DD20C9F0F501ED0DF11D63816D3209F08A
:1056F000BACF8091290B90912A0BA0912B0BB091DE
:105700002C0BB0588093290B90932A0BA0932B0B52
:10571000B0932C0BE2CF6091290B70912A0B8091F2
:105720002B0B90912C0B0E9474540E94BA4500914F
:105730001B0B10911C0B0C94422080E0D82E809300
:10574000180B882311F40C94821F80E090E0A0E8ED
:10575000BFE38093210B9093220BA093230BB09374
:10576000240B80E090E0A0E0B0E08093290B9093C0
:105770002A0BA0932B0BB0932C0BD092190B3FC08C
:10578000605360931A0BE090210BF090220B009174
:10579000230B1091240B70E0882777FD8095982FBC
:1057A0000E94A754A80197010E9494559B01AC0147
:1057B0006091290B70912A0B80912B0B90912C0BEF
:1057C0000E94A1536093290B70932A0B80932B0B9B
:1057D00090932C0BC801B70120E030E040E251E487
:1057E0000E9494556093210B7093220B8093230B9E
:1057F0009093240BDA94D092190BDD20C9F0F501B7
:10580000ED0DF11D63816D3209F0BACF8091290B46
:1058100090912A0BA0912B0BB0912C0BB058809338
:10582000290B90932A0BA0932B0BB0932C0BE2CF58
:105830006091290B70912A0B80912B0B90912C0B6E
:105840000E9474540E94473D00911B0B10911C0B49
:105850000C94821F80E0D82E8093180B882311F4BB
:105860000C94BE1E80E090E0A0E8BFE38093210B83
:105870009093220BA093230BB093240B80E090E035
:10588000A0E0B0E08093290B90932A0BA0932B0B00
:10589000B0932C0BD092190B3FC0605360931A0B3E
:1058A000E090210BF090220B0091230B1091240B20
:1058B00070E0882777FD8095982F0E94A754A80153
:1058C00097010E9494559B01AC016091290B709146
:1058D0002A0B80912B0B90912C0B0E94A15360936B
:1058E000290B70932A0B80932B0B90932C0BC801E0
:1058F000B70120E030E040E251E40E94945560930B
:10590000210B7093220B8093230B9093240BDA943A
:10591000D092190BDD20C9F0F501ED0DF11D638169
:105920006D3209F0BACF8091290B90912A0BA0918A
:105930002B0BB0912C0BB0588093290B90932A0B12
:10594000A0932B0BB0932C0BE2CF6091290B70919D
:105950002A0B80912B0B90912C0B0E9474540E9467
:10596000FE3C0C94BE1E80E0182F8093180B8823F9
:1059700011F40C94FE1D80E090E0A0E8BFE380935A
:10598000210B9093220BA093230BB093240B109325
:10599000190BF601E10FF11D83818D32C9F080539F
:1059A00080931A0B6091210B7091220B8091230B35
:1059B0009091240B20E030E040E251E40E949455A5
:1059C0006093210B7093220B8093230B9093240BF5
:1059D00011501093190B1123E1F60C94FE1D14E0E5
:1059E000612E03CDDD24D3941DCE81E0A7CE81E0CE
:1059F00032CF81E0B9CFDD24D3948CCD81E085CD49
:105A000081E07DCDA5E06A2EF0CC80E090E00E94A0
:105A100054380C94C51912E0D12E7CCD82E08ECE84
:105A200082E019CF72E0D72EFDCD82E06ECD82E00C
:105A300066CD82E099CFE6E06E2ED7CC83E094CF9E
:105A4000B3E0DB2E67CD83E079CE83E058CD83E0F1
:105A500002CF63E0D62EE6CD83E057CD67E0662E19
:105A6000C4CC84E052CD84E04ACD84E0F4CE54E04E
:105A7000D52ED8CD84E078CFA4E0DA2E4BCD81E0CE
:105A800090E00E9454380C94C51984E057CE48E049
:105A9000642EABCC29E0622EA8CC85E030CD85E029
:105AA00063CFF5E0DF2E36CD85E02FCD85E0D3CE78
:105AB00045E0D42EB7CD85E041CE80E093C936E0F5
:105AC000D32EB0CD86E01BCD86E01FCD86E04CCF37
:105AD000E6E0DE2E1FCD86E031CE86E0BCCE87E04C
